:020000040000fa
:080000000002040000000000f2
:020000040000fa
:04000800c80200002a
:020000040000fa
:04000c00c802000026
:020000040000fa
:04001000c802000022
:020000040000fa
:04001400c80200001e
:020000040000fa
:04001800c80200001a
:020000040000fa
:04001c00c802000016
:020000040000fa
:04002000c802000012
:020000040000fa
:04002400c80200000e
:020000040000fa
:04002800c80200000a
:020000040000fa
:04002c00c802000006
:020000040000fa
:04003000c802000002
:020000040000fa
:04003400c8020000fe
:020000040000fa
:04003800c8020000fa
:020000040000fa
:04003c00c8020000f6
:020000040000fa
:04004000c8020000f2
:020000040000fa
:04004400c8020000ee
:020000040000fa
:04004800c8020000ea
:020000040000fa
:04004c00c8020000e6
:020000040000fa
:04005000c8020000e2
:020000040000fa
:04005400c8020000de
:020000040000fa
:04005800c8020000da
:020000040000fa
:04005c00c8020000d6
:020000040000fa
:04006000c8020000d2
:020000040000fa
:04006400c8020000ce
:020000040000fa
:04006800c8020000ca
:020000040000fa
:04006c00c8020000c6
:020000040000fa
:04007000c8020000c2
:020000040000fa
:04007400c8020000be
:020000040000fa
:04007800c8020000ba
:020000040000fa
:04007c00c8020000b6
:020000040000fa
:04008000c8020000b2
:020000040000fa
:04008400c8020000ae
:020000040000fa
:04008800c8020000aa
:020000040000fa
:04008c00c8020000a6
:020000040000fa
:04009000c8020000a2
:020000040000fa
:04009400c80200009e
:020000040000fa
:04009800c80200009a
:020000040000fa
:04009c00c802000096
:020000040000fa
:0400a000c802000092
:020000040000fa
:0400a400c80200008e
:020000040000fa
:0400a800c80200008a
:020000040000fa
:0400ac00c802000086
:020000040000fa
:0400b000c802000082
:020000040000fa
:0400b400c80200007e
:020000040000fa
:0400b800c80200007a
:020000040000fa
:0400bc00c802000076
:020000040000fa
:0400c000c802000072
:020000040000fa
:0400c400c80200006e
:020000040000fa
:0400c800c80200006a
:020000040000fa
:0400cc00c802000066
:020000040000fa
:0400d000c802000062
:020000040000fa
:0400d400c80200005e
:020000040000fa
:0400d800c80200005a
:020000040000fa
:0400dc00c802000056
:020000040000fa
:0400e000c802000052
:020000040000fa
:0400e400c80200004e
:020000040000fa
:0400e800c80200004a
:020000040000fa
:0400ec00c802000046
:020000040000fa
:0400f000c802000042
:020000040000fa
:0400f400c80200003e
:020000040000fa
:0400f800c80200003a
:020000040000fa
:0400fc00c802000036
:020000040000fa
:04010000c802000031
:020000040000fa
:04010400c80200002d
:020000040000fa
:04010800c802000029
:020000040000fa
:04010c00c802000025
:020000040000fa
:04011000c802000021
:020000040000fa
:04011400c80200001d
:020000040000fa
:04011800c802000019
:020000040000fa
:04011c00c802000015
:020000040000fa
:04012000c802000011
:020000040000fa
:04012400c80200000d
:020000040000fa
:04012800c802000009
:020000040000fa
:04012c00c802000005
:020000040000fa
:04013000c802000001
:020000040000fa
:04013400c8020000fd
:020000040000fa
:04013800c8020000f9
:020000040000fa
:04013c00c8020000f5
:020000040000fa
:04014000c8020000f1
:020000040000fa
:04014400c8020000ed
:020000040000fa
:04014800c8020000e9
:020000040000fa
:04020800c802000028
:020000040000fa
:04020c00c802000024
:020000040000fa
:04021000c802000020
:020000040000fa
:04021400c80200001c
:020000040000fa
:04021800c802000018
:020000040000fa
:04021c00c802000014
:020000040000fa
:04022000c802000010
:020000040000fa
:04022400c80200000c
:020000040000fa
:04022800c802000008
:020000040000fa
:04022c00c802000004
:020000040000fa
:04023000c802000000
:020000040000fa
:04023400c8020000fc
:020000040000fa
:04023800c8020000f8
:020000040000fa
:04023c00c8020000f4
:020000040000fa
:04024000c8020000f0
:020000040000fa
:04024400c8020000ec
:020000040000fa
:04024800c8020000e8
:020000040000fa
:04024c00c8020000e4
:020000040000fa
:04025000c8020000e0
:020000040000fa
:04025400c8020000dc
:020000040000fa
:04025800c8020000d8
:020000040000fa
:04025c00c8020000d4
:020000040000fa
:04026000c8020000d0
:020000040000fa
:04026400c8020000cc
:020000040000fa
:04026800c8020000c8
:020000040000fa
:04026c00c8020000c4
:020000040000fa
:04027000c8020000c0
:020000040000fa
:04027400c8020000bc
:020000040000fa
:04027800c8020000b8
:020000040000fa
:04027c00c8020000b4
:020000040000fa
:04028000c8020000b0
:020000040000fa
:04028400c8020000ac
:020000040000fa
:04028800c8020000a8
:020000040000fa
:04028c00c8020000a4
:020000040000fa
:04029000c8020000a0
:020000040000fa
:04029400c80200009c
:020000040000fa
:04029800c802000098
:020000040000fa
:04029c00c802000094
:020000040000fa
:0402a000c802000090
:020000040000fa
:0402a400c80200008c
:020000040000fa
:0402a800c802000088
:020000040000fa
:0402ac00c802000084
:020000040000fa
:0402b000c802000080
:020000040000fa
:0402b400c80200007c
:020000040000fa
:0402b800c802000078
:020000040000fa
:0402bc00c802000074
:020000040000fa
:0402c000c802000070
:020000040000fa
:0402c400c80200006c
:020000040000fa
:0402c800c802000068
:020000040000fa
:0402cc00c802000064
:020000040000fa
:0402d000c802000060
:020000040000fa
:0402d400c80200005c
:020000040000fa
:0402d800c802000058
:020000040000fa
:0402dc00c802000054
:020000040000fa
:0402e000c802000050
:020000040000fa
:0402e400c80200004c
:020000040000fa
:0402e800c802000048
:020000040000fa
:0402ec00c802000044
:020000040000fa
:0402f000c802000040
:020000040000fa
:0402f400c80200003c
:020000040000fa
:0402f800c802000038
:020000040000fa
:0402fc00c802000034
:020000040000fa
:04030000c80200002f
:020000040000fa
:04030400c80200002b
:020000040000fa
:04030800c802000027
:020000040000fa
:04030c00c802000023
:020000040000fa
:04031000c80200001f
:020000040000fa
:04031400c80200001b
:020000040000fa
:04031800c802000017
:020000040000fa
:04031c00c802000013
:020000040000fa
:04032000c80200000f
:020000040000fa
:04032400c80200000b
:020000040000fa
:04032800c802000007
:020000040000fa
:04032c00c802000003
:020000040000fa
:04033000c8020000ff
:020000040000fa
:04033400c8020000fb
:020000040000fa
:04033800c8020000f7
:020000040000fa
:04033c00c8020000f3
:020000040000fa
:04034000c8020000ef
:020000040000fa
:04034400c8020000eb
:020000040000fa
:04034800c8020000e7
:020000040000fa
:10040000ef9020000e7f22000e0188000000000007
:10041000000020000000e000020032000001200087
:1004200020028800140007005b0007000000e000c5
:1004300003003a00e06720000100200002003700be
:100440000000200001002000810f70000100320038
:1004500014000700000020000000e000020032004d
:1004600000000200000000004e0602000000000034
:100470000040da000000fe004440a9000000200017
:100480000000e0000300320000002000a00188000e
:100490004440a800000006008a1f78008b1f7800e7
:1004a0000000060091018800800478000000eb0045
:1004b0001a003700e284440032a0b4009905ba0063
:1004c000e284440032a0b4009906ba00e2844400f9
:1004d00032a0b4000006eb00476fde00fd07b2005b
:1004e000636ce10003003a00ebff07000000eb0043
:1004f0000a003700606ce10004003a00005deb0088
:100500008b05e900fdff3e00040037006168e10053
:10051000010032000086eb000b00070019c7ba008b
:100520001905ba000e04e00003003a000a00e000da
:10053000e0ff3a0000000600fe07b2009e018800be
:100540008a047800f5ff3700395dba008b05e900b1
:100550000c003200295dba008b05e900080032006a
:100560000c00e00003003a00e284440032a0b40032
:10057000f5ff370019ddba008b05e900faff3a00f4
:100580008904e800e184440032a0b40000000600c1
:100590000040da000000fe0000000500889fbe0059
:1005a000104080000000e000010032000000010067
:1005b000204080000000e000010032000000010047
:1005c000008020001004e00022003a005048800023
:1005d0006148800088002000d2602600930120003e
:1005e00035000700f2352f00e3c62300000041006c
:1005f000818049000804e900f7ff3a006880200084
:100600000908200088844400d2602600930120005d
:1006100029000700f2352f00e3c623000000410047
:100620008180490000acbe00890f5400f6ff3a00fb
:100630005048880061488800304480004144800070
:10064000304088004140880011c0b3000080200085
:1006500001487800d26026009301200050488000b5
:100660006148800014000700f2352f00e3c6230024
:100670000002410081824900544888006548880092
:1006800060802000100078007f0160004211dd00d2
:10069000a0802000020140001200be00304088000f
:1006a000414088000489be000100780000f0a100ec
:1006b0004f04be0000000600020ab900001bb9008a
:1006c0000200b800810042008100430000000600e3
:020000040000fa
:1006d0000a00fa00200798003107980042079800a6
:1006e0002e0090000000e00066003500ae00900093
:1006f000f00f2000808f500062003c003e00900010
:100700000000e0005f003500be009000f00f200008
:10071000808f50005b003c004e0090000000e00025
:1007200058003500ce009000f00f2000808f500060
:1007300054003c0070002000000f78008000200072
:100740001007980014003700ae0090001e007800db
:100750008088de0010002800008060000000e000bb
:1007600004003d000000e900e1ff2f000080700060
:100770000000e800e10f500002003a004e010700bf
:1007800001003700530107001e0090000000e9003f
:10079000100798001e0fe9001e0090000000e00006
:1007a000e9ff3c0070002000000f7800800020006e
:1007b0001007980014003700be0090001e0078005b
:1007c0008088de0010002800008060000000e0004b
:1007d00004003d000000e900e1ff2f0000807000f0
:1007e0000000e800e10f500002003a00320107006b
:1007f00001003700370107001e0090000000e900eb
:10080000100798001e0fe9001e0090000000e00095
:10081000e9ff3c0070002000000f780080002000fd
:100820001007980014003700ce0090001e007800da
:100830008088de0010002800008060000000e000da
:1008400004003d000000e900e1ff2f00008070007f
:100850000000e800e10f500002003a001601070016
:10086000010037001b0107001e0090000000e90096
:10087000100798001e0fe9001e0090000000e00025
:10088000e9ff3c000080fa00000006000600fa00c4
:10089000404798004e4090000080fb00000f780019
:1008a0004e4090000080fb00f10f200000805000bf
:1008b000100798001e0190008000eb001e007800d9
:1008c00083ff07000080fa00000006000400fa0021
:1008d000004f780011479800224798001e80fb00c7
:1008e0008000eb00c001dd00020020001e409000ef
:1008f0000082fb008002eb004828dd00c820de00fb
:10090000810070004820dd000001710081817100cc
:100910002e4090000080fb008000eb000000710082
:10092000818071000080fa00000006000400fa00d7
:10093000008fbe001e00be004008de0000407800b0
:100940000080fa00000006000400fa00008fbe00dc
:100950001e00be004809dd004800de0000007100f6
:10096000c808de00004078000080fa0000000600a1
:100970000400fa00008fbe001e00780000407800de
:100980000080fa00000006000400fa00889fbe0004
:10099000008fbe001e00be00f5ff07008084fb0034
:1009a0001e00be00e8ff07000084fb001e00be0022
:1009b000deff07000080fb00090178008800780056
:1009c00043ff07004f04be000080fa00000006004d
:1009d0000200fa00004f78001ecfea0040c5b300c5
:1009e0009e40780080cf50000d003e001e407800f1
:1009f0006300b90000007800004178009e40780054
:100a0000d00f20000088b900000078000040780076
:100a10000040e9008040eb00acff070023003700f6
:100a200090cab3009e40780080cf500010003e0076
:100a3000b0cab3001e4f40009e407800d00f200087
:100a40000088b90000007800004078000041e9000b
:100a50001e4078006300b900000078000040780074
:100a6000804078000040eb0098ff07000f0037003f
:100a700061c5b3001ecf40009e407800d00f20001b
:100a80000088b90000007800004078008041e9004b
:100a90001e4078006300b900000078000040780034
:100aa0000041eb008340780088ff07000080fa00d7
:100ab000000006000200fa00000f78000200370074
:100ac0008b0007001e0fe9001e0078000000e00008
:100ad000fbff3c000080fa00000006000400fa0062
:100ae000881f78000000eb00000f7800130037002b
:100af0000000eb00100798000c0037001e00780083
:100b0000c300dd001e009000008040008000400017
:100b1000a08820000080400011002000010878001b
:100b20001e0090000000e800100798001e009000d2
:100b3000e70f5000f1ff34001e0fe8001e007800a0
:100b4000e70f5000eaff34000000eb00000f7800d0
:100b50001b00370091fe07007100280001006000b3
:100b60000000e00004003d000000e90081ff2f00cc
:100b7000008070000000e8000004780087fe070095
:100b800071002800010060000000e00004003d004a
:100b90000000e90081ff2f00008070000000e800e5
:100ba000c340dd000080400080004000a08820009d
:100bb000008040008000eb00010878001e0fe80074
:100bc0001e007800ea0f5000e2ff34004f04780066
:100bd0000080fa00000006000400fa000000eb00ac
:100be000000f78001d0037000000eb001007980090
:100bf000160037001e007800c300dd001e009000c4
:100c00000080400080004000a0882000008040005c
:100c100010007800e10f500005003a000001eb00e1
:100c20008000eb000000eb00a9fe07000400370085
:100c30000001eb00c10220000000eb00a4fe070051
:100c40001e0090000000e800100798001e009000b1
:100c5000e70f5000e7ff34001e0fe8001e00780089
:100c6000e70f5000e0ff34000080fa0000000600ab
:100c70000000fa00213a8000f08f2f000080600011
:100c8000203a8800f0ff2900601988001001200038
:100c9000401688000080fa00000006000000fa00fc
:100ca000f3ff07008dff0700cbff07000071220054
:100cb00080ff0700fbff3700cce2a8000900090015
:100cc00000000000cce2a9000000000000000000cd
:100cd00000000600cce2a8000300090000000000ac
:100ce000cce2a90006000900000000000000060098
:0c0cf000793e0900000000000000060032
:020000040000fa
:100cfc008a08000080000000000000000a090000c3
:100d0c0004000000020000000100000000000000d0
:100d1c00000800008a000000000000000000000035
:020000040000fa
:020000040001f9
:0457f8000ff90000a5
:020000040000fa
:020000040001f9
:0457fc007f3f0000eb
:00000001FF
