:020000040000fa
:080000000002040000000000f2
:020000040000fa
:040008000c030000e5
:020000040000fa
:04000c000c030000e1
:020000040000fa
:040010000c030000dd
:020000040000fa
:040014000c030000d9
:020000040000fa
:040018000c030000d5
:020000040000fa
:04001c000c030000d1
:020000040000fa
:040020000c030000cd
:020000040000fa
:040024000c030000c9
:020000040000fa
:040028000c030000c5
:020000040000fa
:04002c000c030000c1
:020000040000fa
:040030000c030000bd
:020000040000fa
:040034000c030000b9
:020000040000fa
:040038000c030000b5
:020000040000fa
:04003c000c030000b1
:020000040000fa
:040040000c030000ad
:020000040000fa
:040044000c030000a9
:020000040000fa
:040048000c030000a5
:020000040000fa
:04004c000c030000a1
:020000040000fa
:040050000c0300009d
:020000040000fa
:040054000c03000099
:020000040000fa
:040058000c03000095
:020000040000fa
:04005c00c8020000d6
:020000040000fa
:040060000c0300008d
:020000040000fa
:040064000c03000089
:020000040000fa
:040068000c03000085
:020000040000fa
:04006c000c03000081
:020000040000fa
:040070000c0300007d
:020000040000fa
:040074000c03000079
:020000040000fa
:040078000c03000075
:020000040000fa
:04007c000c03000071
:020000040000fa
:040080000c0300006d
:020000040000fa
:040084000c03000069
:020000040000fa
:040088000c03000065
:020000040000fa
:04008c000c03000061
:020000040000fa
:040090000c0300005d
:020000040000fa
:040094000c03000059
:020000040000fa
:040098000c03000055
:020000040000fa
:04009c000c03000051
:020000040000fa
:0400a0000c0300004d
:020000040000fa
:0400a4000c03000049
:020000040000fa
:0400a8000c03000045
:020000040000fa
:0400ac000c03000041
:020000040000fa
:0400b0000c0300003d
:020000040000fa
:0400b4000c03000039
:020000040000fa
:0400b8000c03000035
:020000040000fa
:0400bc000c03000031
:020000040000fa
:0400c0000c0300002d
:020000040000fa
:0400c4000c03000029
:020000040000fa
:0400c8000c03000025
:020000040000fa
:0400cc000c03000021
:020000040000fa
:0400d0000c0300001d
:020000040000fa
:0400d4000c03000019
:020000040000fa
:0400d8000c03000015
:020000040000fa
:0400dc000c03000011
:020000040000fa
:0400e0000c0300000d
:020000040000fa
:0400e4000c03000009
:020000040000fa
:0400e8000c03000005
:020000040000fa
:0400ec000c03000001
:020000040000fa
:0400f0000c030000fd
:020000040000fa
:0400f4000c030000f9
:020000040000fa
:0400f8000c030000f5
:020000040000fa
:0400fc000c030000f1
:020000040000fa
:040100000c030000ec
:020000040000fa
:040104000c030000e8
:020000040000fa
:040108000c030000e4
:020000040000fa
:04010c000c030000e0
:020000040000fa
:040110000c030000dc
:020000040000fa
:040114000c030000d8
:020000040000fa
:040118000c030000d4
:020000040000fa
:04011c000c030000d0
:020000040000fa
:040120000c030000cc
:020000040000fa
:040124000c030000c8
:020000040000fa
:040128000c030000c4
:020000040000fa
:04012c000c030000c0
:020000040000fa
:040130000c030000bc
:020000040000fa
:040134000c030000b8
:020000040000fa
:040138000c030000b4
:020000040000fa
:04013c000c030000b0
:020000040000fa
:040140000c030000ac
:020000040000fa
:040144000c030000a8
:020000040000fa
:040148000c030000a4
:020000040000fa
:040208000c030000e3
:020000040000fa
:04020c000c030000df
:020000040000fa
:040210000c030000db
:020000040000fa
:040214000c030000d7
:020000040000fa
:040218000c030000d3
:020000040000fa
:04021c000c030000cf
:020000040000fa
:040220000c030000cb
:020000040000fa
:040224000c030000c7
:020000040000fa
:040228000c030000c3
:020000040000fa
:04022c000c030000bf
:020000040000fa
:040230000c030000bb
:020000040000fa
:040234000c030000b7
:020000040000fa
:040238000c030000b3
:020000040000fa
:04023c000c030000af
:020000040000fa
:040240000c030000ab
:020000040000fa
:040244000c030000a7
:020000040000fa
:040248000c030000a3
:020000040000fa
:04024c000c0300009f
:020000040000fa
:040250000c0300009b
:020000040000fa
:040254000c03000097
:020000040000fa
:040258000c03000093
:020000040000fa
:04025c000c0300008f
:020000040000fa
:040260000c0300008b
:020000040000fa
:040264000c03000087
:020000040000fa
:040268000c03000083
:020000040000fa
:04026c000c0300007f
:020000040000fa
:040270000c0300007b
:020000040000fa
:040274000c03000077
:020000040000fa
:040278000c03000073
:020000040000fa
:04027c000c0300006f
:020000040000fa
:040280000c0300006b
:020000040000fa
:040284000c03000067
:020000040000fa
:040288000c03000063
:020000040000fa
:04028c000c0300005f
:020000040000fa
:040290000c0300005b
:020000040000fa
:040294000c03000057
:020000040000fa
:040298000c03000053
:020000040000fa
:04029c000c0300004f
:020000040000fa
:0402a0000c0300004b
:020000040000fa
:0402a4000c03000047
:020000040000fa
:0402a8000c03000043
:020000040000fa
:0402ac000c0300003f
:020000040000fa
:0402b0000c0300003b
:020000040000fa
:0402b4000c03000037
:020000040000fa
:0402b8000c03000033
:020000040000fa
:0402bc000c0300002f
:020000040000fa
:0402c0000c0300002b
:020000040000fa
:0402c4000c03000027
:020000040000fa
:0402c8000c03000023
:020000040000fa
:0402cc000c0300001f
:020000040000fa
:0402d0000c0300001b
:020000040000fa
:0402d4000c03000017
:020000040000fa
:0402d8000c03000013
:020000040000fa
:0402dc000c0300000f
:020000040000fa
:0402e0000c0300000b
:020000040000fa
:0402e4000c03000007
:020000040000fa
:0402e8000c03000003
:020000040000fa
:0402ec000c030000ff
:020000040000fa
:0402f0000c030000fb
:020000040000fa
:0402f4000c030000f7
:020000040000fa
:0402f8000c030000f3
:020000040000fa
:0402fc000c030000ef
:020000040000fa
:040300000c030000ea
:020000040000fa
:040304000c030000e6
:020000040000fa
:040308000c030000e2
:020000040000fa
:04030c000c030000de
:020000040000fa
:040310000c030000da
:020000040000fa
:040314000c030000d6
:020000040000fa
:040318000c030000d2
:020000040000fa
:04031c000c030000ce
:020000040000fa
:040320000c030000ca
:020000040000fa
:040324000c030000c6
:020000040000fa
:040328000c030000c2
:020000040000fa
:04032c000c030000be
:020000040000fa
:040330000c030000ba
:020000040000fa
:040334000c030000b6
:020000040000fa
:040338000c030000b2
:020000040000fa
:04033c000c030000ae
:020000040000fa
:040340000c030000aa
:020000040000fa
:040344000c030000a6
:020000040000fa
:040348000c030000a2
:020000040000fa
:10040000ef8820000e7f22000e018800000000000f
:10041000000020000000e000020032000001200087
:1004200020028800140007007d0007000000e000a3
:1004300003003a0040ac2000010020000200370019
:100440000000200001002000810f70000100320038
:1004500014000700000020000000e000020032004d
:100460000000020000000000a205020000000000e1
:100470000040da000000fe004440a90020022000f5
:100480000000e0000300320000002000a00188000e
:100490004440a800000006008a1f78008b1f7800e7
:1004a0000000060091018800800478000000eb0045
:1004b0001a003700e284440032a0b4009905ba0063
:1004c000e284440032a0b4009906ba00e2844400f9
:1004d00032a0b4000006eb00476fde00fd07b2005b
:1004e000636ce10003003a00ebff07000000eb0043
:1004f0000a003700606ce10004003a00005deb0088
:100500008b05e900fdff3e00040037006168e10053
:10051000010032000086eb000b00070019c7ba008b
:100520001905ba000e04e00003003a000a00e000da
:10053000e0ff3a0000000600fe07b2009e018800be
:100540008a047800f5ff3700395dba008b05e900b1
:100550000c003200295dba008b05e900080032006a
:100560000c00e00003003a00e284440032a0b40032
:10057000f5ff370019ddba008b05e900faff3a00f4
:100580008904e800e184440032a0b40000000600c1
:10059000809fbe003400f80000002000a001880009
:1005a0000200fa0085a0a900614080001000280028
:1005b000008060000000e00004003d000000e90051
:1005c000e1ff2f00008070000000e800000f7800bd
:1005d0001e0078000000e00003003a0000188000d0
:1005e000404088000200370010188000504088000a
:1005f000604080000000e8006040880060408000ab
:1006000063006000604088000080fa003400f90058
:100610004f00be00004006000040da000000fe006f
:100620000000050080007800010178003104e0003e
:0c063000fdff3a00000051000000060031
:020000040000fa
:10063c006c650000667400000072000069670000c1
:10064c0068740000006400006f7700006e0000000a
:10065c0075700000006e00006f2000006d6f0000d0
:10066c0076650000000000007465000073740000e3
:04067c00000000007a
:020000040000fa
:100680000000fa00213a8000f08f2f000080600007
:10069000203a8800c0ff2f00601988001001200058
:1006a00040168800760307000080fa00000006006c
:1006b0000400fa000000eb00000f78001300370080
:1006c0000000eb00100798000c0037001e007800b7
:1006d000c300dd001e00900000804000800040004c
:1006e000e080200000804000110020000108780018
:1006f0001e0090000000e800100798001e00900007
:10070000e70f5000f1ff34001e0fe8001e007800d4
:10071000e70f5000eaff34000000eb007040880053
:100720000000eb00a04088000000eb00d0408800f3
:100730000000eb00f04088000000eb001041880052
:100740000000eb00204188000000eb0030418800f1
:100750000000eb00404188000000eb0050418800a1
:100760000000eb00704188000000eb009041880021
:100770000000eb00b04188000000eb00d041880091
:100780000000eb00e04188000000eb00f041880031
:100790000000eb00104288000000eb0030428800af
:1007a0000000eb00000f7800080037000102200075
:1007b0001e80400080004000e0802000008040005b
:1007c0008000eb00010878001e0fe8001e00780092
:1007d000e70f5000f5ff34000000eb00f042880006
:1007e0000000eb00204388000000eb00404388003d
:1007f0000000eb00604388000000eb0070438800bd
:100800000000eb00a04388000000eb00c04388001c
:100810000000eb00e04388000000eb00204488006b
:100820000000eb00304488000000eb0040448800ea
:100830000000eb00604488002140800030408000d0
:10084000c308dd000080400080004000e080200000
:100850000080400081002000010878000080fa003c
:10086000000006000400fa000000eb00000f780012
:100870002c0037000000eb0010079800250037001f
:100880001e007800c300dd001e00900000804000c4
:1008900080004000e08020000080400010007800d0
:1008a000e10f500005003a00720120008000eb00cb
:1008b0000000eb00cc000700130037001e0078009a
:1008c000c300dd001e00900000804000800040005a
:1008d000e08020000080400010007800e80f500009
:1008e00005003a000001eb008000eb0060012000f1
:1008f000bd000700040037000001eb008000eb00a2
:100900000000eb00b80007001e0090000000e800a7
:10091000100798001e009000e70f5000d8ff340029
:100920001e0fe8001e007800e70f5000d1ff3400d2
:1009300010002000a50107000080fa00000006005a
:100940000200fa00000f780020408000004088007c
:1009500030408000104088001e007800e20f5000f8
:100960001b003200e20f500003003c00e10f50007a
:100970002800320059003700e30f50000300320016
:10098000e40f500034003200540037003040800043
:100990000000e00042003200214080003040800032
:1009a0000000e900c308dd00008040008000400036
:1009b000e08020000080400010007800e10f50002f
:1009c00039003200304080000000e90030408800eb
:1009d000204080000000e000350032002040800010
:1009e0008000e90030408000c308dd000080400046
:1009f00080004000e080200000804000100078006f
:100a0000e10f50002c003200204080000000e9007f
:100a10002040880030408000e70f5000280032005e
:100a200021408000304080000000e800c308dd0065
:100a30000080400080004000e080200000804000f6
:100a400010007800e10f50001f003200304080009d
:100a50000000e8003040880020408000e70f500090
:100a60001b003200204080008000e8003040800001
:100a7000c308dd000080400080004000e0802000ce
:100a80000080400010007800e10f5000120032009a
:100a9000204080000000e800204088000f00370060
:100aa000000000000d003700000000000b003700c0
:100ab00000000000090037000000000007003700b8
:100ac00000000000050037000000000003003700b0
:100ad0000000000001003700000000000080fa0064
:100ae000000006000200fa00000f78001e007800e7
:100af00093ff07000140800010408000c308dd0024
:100b00000080400080004000e08020000080400025
:100b10008000eb0001087800214080003040800018
:100b2000c308dd000080400080004000e08020001d
:100b30000080400081002000010878000080fa0059
:100b4000000006000200fa00cdfe0700d8fe0700f4
:100b50000428ef000628ef001f020700000f7800ae
:100b60001e007800dfff07003eff07001e00780030
:100b7000e30f500003003a00e0312800cb010700ea
:100b8000140037001e007800e10f500003003a0007
:100b900030322800c50107000e0037001e00780023
:100ba000e40f500003003a0090322800bf01070014
:100bb000080037001e007800e20f500003003a00e2
:100bc000e0322800b9010700020037001033280086
:100bd000b601070080072000fc00070010c0b3002a
:100be00004010700dcff37000a00fa002007980024
:100bf00031079800420798002e0090000000e000a6
:100c000066003500ae009000f00f2000808f50008d
:100c100062003c003e0090000000e0005f003500f4
:100c2000be009000f00f2000808f50005b003c0061
:100c30004e0090000000e00058003500ce0090000b
:100c4000f00f2000808f500054003c007000200006
:100c5000000f780080002000100798001400370073
:100c6000ae0090001e0078008088de001000280092
:100c7000008060000000e00004003d000000e9008a
:100c8000e1ff2f00008070000000e800e10f50003d
:100c900002003a002b020700010037003002070073
:100ca0001e0090000000e900100798001e0fe900e8
:100cb0001e0090000000e000e9ff3c0070002000f2
:100cc000000f780080002000100798001400370003
:100cd000be0090001e0078008088de001000280012
:100ce000008060000000e00004003d000000e9001a
:100cf000e1ff2f00008070000000e800e10f5000cd
:100d000002003a000f02070001003700140207003a
:100d10001e0090000000e900100798001e0fe90077
:100d20001e0090000000e000e9ff3c007000200081
:100d3000000f780080002000100798001400370092
:100d4000ce0090001e0078008088de001000280091
:100d5000008060000000e00004003d000000e900a9
:100d6000e1ff2f00008070000000e800e10f50005c
:100d700002003a00f301070001003700f801070004
:100d80001e0090000000e900100798001e0fe90007
:100d90001e0090000000e000e9ff3c000080fa0027
:100da000000006000600fa00404798004e40900000
:100db0000080fb00000f78004e4090000080fb0098
:100dc000f10f200000805000100798001e019000d5
:100dd0008000eb001e00780083ff07000080fa000f
:100de000000006000400fa00004f78001147980048
:100df000224798001e80fb008000eb00c001dd0050
:100e0000020020001e4090000082fb008002eb00e8
:100e10004828dd00c820de00810070004820dd0089
:100e200000017100818171002e4090000080fb0064
:100e30008000eb0000007100818071000080fa00ea
:100e4000000006000400fa00008fbe001e00be0075
:100e50004008de00004078000080fa000000060034
:100e60000400fa00008fbe001e00be004809dd002d
:100e70004800de0000007100c808de000040780075
:100e80000080fa00000006000400fa00008fbe0097
:100e90001e007800004078000080fa000000060084
:100ea0000400fa00889fbe00008fbe001e00be0036
:100eb000f5ff07008084fb001e00be00e8ff07006e
:100ec0000084fb001e00be00deff07000080fb0068
:100ed000090178008800780043ff07004f04be0036
:100ee0000080fa00000006000200fa00004f7800bf
:100ef0001ecfea0040c5b3009e40780080cf50006e
:100f00000d003e001e4078006300b900000078002c
:100f1000004178009e407800d00f20000088b90082
:100f200000007800004078000040e9008040eb00bd
:100f3000acff07002300370090cab3009e40780042
:100f400080cf500010003e00b0cab3001e4f4000da
:100f50009e407800d00f20000088b9000000780083
:100f6000004078000041e9001e4078006300b900ad
:100f70000000780000407800804078000040eb00de
:100f800098ff07000f00370061c5b3001ecf400077
:100f90009e407800d00f20000088b9000000780043
:100fa000004078008041e9001e4078006300b900ed
:100fb00000007800004078000041eb00834078009a
:100fc00088ff07000080fa00000006000200fa0017
:100fd000000f780002003700680107001e0fe900cb
:100fe0001e0078000000e000fbff3c000080fa00db
:100ff000000006000200fa00004f78001602a80068
:1010000000000000b0108000610060000000e000ff
:10101000fcff3a00c007200090108800000000008c
:10102000c110800000002400008060000000e0008b
:10103000fbff3a001222ef0000000000c110800008
:1010400000002400008060000000e000fbff3a0088
:101050001e00fb009010880000000000c1108000fe
:1010600000002400008060000000e000fbff3a0068
:101070001642a80000000000b0108000640060006c
:101080000000e000fcff3a000080fa0000000600cb
:101090000200fa000000eb00000f780007003700a4
:1010a0000000000020048000680060000000e000f4
:1010b000fcff32008460a9001e0fe800100320002e
:1010c0009e007800808f5000f5ff340080c3b3008d
:1010d000c8ff070090c3b300c6ff070040c1b300bc
:1010e000c4ff070000c7b300c2ff0700e0c5b3009c
:1010f000c0ff0700c0c6b300beff07000000eb0042
:10110000000f78000800370005e1a800000000008b
:1011100020048000680060000000e000fcff320056
:101120008460a9001e0fe800700c20009e0078006b
:10113000808f5000f4ff340080c3b300adff070080
:10114000c0c0b300abff070010c0b300a9ff070089
:101150000000eb00000f78000800370005e1a80050
:101160000000000020048000680060000000e00033
:10117000fcff32008460a9001e0fe8001e0078000a
:10118000e10f5000f5ff34000080fa000000060077
:101190000600fa0040479800514798004e409000e2
:1011a0000004e00003003a000000eb00000f7800ac
:1011b000050037004e409000e14f500002003a0019
:1011c00000042000000f78004e4090008000fb00db
:1011d0001e0078000088b900800078005e40900012
:1011e0000000fb0000804000100798001e009000e7
:1011f0000070a000100798001e00900000407800ca
:101200007cff07000080fa00000006000200fa00e0
:10121000004f78001602a80000000000b010800007
:10122000610060000000e000fcff3a00c007200001
:101230009010880000000000c11080000000240011
:10124000008060000000e000fbff3a000004200086
:101250009010880000000000c110800000002400f1
:10126000008060000000e000fbff3a001e00fb0071
:101270009010880000000000c110800000002400d1
:10128000008060000000e000fbff3a001642a8006a
:1012900000000000b0108000640060000000e0006a
:1012a000fcff3a000080fa00000006000600fa0089
:1012b000200798001602a80000000000b01080006f
:1012c000610060000000e000fcff3a00c007200061
:1012d0009010880000000000c11080000000240071
:1012e000008060000000e000fbff3a002e0090004c
:1012f000ccfc0700100798000000eb00000f7800fe
:1013000015003700000c200090108800000000003d
:10131000c110800000002400008060000000e00098
:10132000fbff3a001e007800ae00900000804000f5
:10133000104078000000fb009010880000000000c2
:10134000c110800000002400008060000000e00068
:10135000fbff3a001e0fe8001e0090000000e900ad
:101360009e0f5000e7ff3c00000420009010880012
:1013700000000000c1108000000024000080600018
:101380000000e000fbff3a001e007800ae00900075
:1013900000804000104078000000fb0090108800a2
:1013a00000000000c11080000000240000806000e8
:1013b0000000e000fbff3a001642a8000000000019
:1013c000b0108000640060000000e000fcff3a0004
:1013d0000080fa00000006000200fa002043a80086
:1013e0000000000021048000000022000080600056
:1013f0000000e000fbff32002043a90041408000d4
:1014000080202000808f5000030034001000200056
:10141000000f78001700370041408000301f200087
:10142000808f500003003c0030002000000f780047
:10143000100037005140800060222000808f500053
:101440000300340040002000000f7800090037003e
:1014500051408000f0182000808f500003003c00b5
:1014600020002000000f780002003700500020000c
:10147000000f78001e0078000080fa0000000600cf
:101480000000fa0030002000001688002023ef0042
:101490002223ef002423ef002343a800111980002a
:1014a00030fc2f00008060000020a0001019880090
:1014b0002203a90001198000000e20000100700025
:1014c000001988003003a8003023a80010c0b30022
:1014d00024e3b70021198000f00f2e008080600007
:1014e00000102100010070002019880095a0a800bc
:1014f00085a0a90021e3a80017e2a900d0092000d7
:10150000a010880017e2a8008a40a9000421ef007b
:10151000f0e72300100888000021ef008460a90094
:1015200005e1a800dafe07008040eb000040eb0078
:1015300017ff0700a03328005cff07000080fa00b7
:1015400000000600cce2a80009000900000000002d
:10155000cce2a9000000000000000000000006002e
:10156000cce2a8000300090000000000cce2a900c2
:10157000060009000000000000000600793e090096
:0815800000000000000006005d
:020000040000fa
:101588000e080000800000000000000000080000b5
:101598000800000000000000080800000600000025
:0815a80000000000000000003b
:020000040000fa
:020000040001f9
:0457f8000ff90000a5
:020000040000fa
:020000040001f9
:0457fc007f3f0000eb
:00000001FF
